{
  "address": "0x5FbDB2315678afecb367f032d93F642f64180aa3",
  "_format": "hh-sol-artifact-1",
  "contractName": "Identity",
  "sourceName": "contracts/Identity.sol",
  "abi": [
    {
      "inputs": [
        {
          "internalType": "string",
          "name": "_deployerName",
          "type": "string"
        },
        {
          "internalType": "uint256",
          "name": "_age",
          "type": "uint256"
        }
      ],
      "stateMutability": "nonpayable",
      "type": "constructor"
    },
    {
      "inputs": [],
      "name": "age",
      "outputs": [
        {
          "internalType": "uint256",
          "name": "",
          "type": "uint256"
        }
      ],
      "stateMutability": "view",
      "type": "function"
    },
    {
      "inputs": [
        {
          "internalType": "uint256",
          "name": "",
          "type": "uint256"
        }
      ],
      "name": "arr",
      "outputs": [
        {
          "internalType": "uint256",
          "name": "",
          "type": "uint256"
        }
      ],
      "stateMutability": "view",
      "type": "function"
    },
    {
      "inputs": [],
      "name": "getArrLength",
      "outputs": [
        {
          "internalType": "uint256",
          "name": "",
          "type": "uint256"
        }
      ],
      "stateMutability": "view",
      "type": "function"
    },
    {
      "inputs": [],
      "name": "getName",
      "outputs": [
        {
          "internalType": "string",
          "name": "",
          "type": "string"
        }
      ],
      "stateMutability": "view",
      "type": "function"
    },
    {
      "inputs": [
        {
          "internalType": "uint256",
          "name": "_newAge",
          "type": "uint256"
        }
      ],
      "name": "setAge",
      "outputs": [],
      "stateMutability": "nonpayable",
      "type": "function"
    },
    {
      "inputs": [
        {
          "internalType": "string",
          "name": "_name",
          "type": "string"
        }
      ],
      "name": "setName",
      "outputs": [],
      "stateMutability": "nonpayable",
      "type": "function"
    },
    {
      "inputs": [],
      "name": "store",
      "outputs": [
        {
          "internalType": "string",
          "name": "",
          "type": "string"
        }
      ],
      "stateMutability": "pure",
      "type": "function"
    }
  ],
  "bytecode": "0x60806040526040518060800160405280600a60ff168152602001601460ff168152602001601e60ff168152602001602860ff16815250600290600462000047929190620000e9565b503480156200005557600080fd5b5060405162000b5e38038062000b5e83398181016040528101906200007b91906200026c565b81600090805190602001906200009392919062000133565b508060018190555060128111620000e1576040517f08c379a0000000000000000000000000000000000000000000000000000000008152600401620000d890620002ed565b60405180910390fd5b5050620004dd565b826004810192821562000120579160200282015b828111156200011f578251829060ff16905591602001919060010190620000fd565b5b5090506200012f9190620001c4565b5090565b8280546200014190620003bf565b90600052602060002090601f016020900481019282620001655760008555620001b1565b82601f106200018057805160ff1916838001178555620001b1565b82800160010185558215620001b1579182015b82811115620001b057825182559160200191906001019062000193565b5b509050620001c09190620001c4565b5090565b5b80821115620001df576000816000905550600101620001c5565b5090565b6000620001fa620001f48462000338565b6200030f565b9050828152602081018484840111156200021357600080fd5b6200022084828562000389565b509392505050565b600082601f8301126200023a57600080fd5b81516200024c848260208601620001e3565b91505092915050565b6000815190506200026681620004c3565b92915050565b600080604083850312156200028057600080fd5b600083015167ffffffffffffffff8111156200029b57600080fd5b620002a98582860162000228565b9250506020620002bc8582860162000255565b9150509250929050565b6000620002d56011836200036e565b9150620002e2826200049a565b602082019050919050565b600060208201905081810360008301526200030881620002c6565b9050919050565b60006200031b6200032e565b9050620003298282620003f5565b919050565b6000604051905090565b600067ffffffffffffffff8211156200035657620003556200045a565b5b620003618262000489565b9050602081019050919050565b600082825260208201905092915050565b6000819050919050565b60005b83811015620003a95780820151818401526020810190506200038c565b83811115620003b9576000848401525b50505050565b60006002820490506001821680620003d857607f821691505b60208210811415620003ef57620003ee6200042b565b5b50919050565b620004008262000489565b810181811067ffffffffffffffff821117156200042257620004216200045a565b5b80604052505050565b7f4e487b7100000000000000000000000000000000000000000000000000000000600052602260045260246000fd5b7f4e487b7100000000000000000000000000000000000000000000000000000000600052604160045260246000fd5b6000601f19601f8301169050919050565b7f4167652073686f756c642062652031382b000000000000000000000000000000600082015250565b620004ce816200037f565b8114620004da57600080fd5b50565b61067180620004ed6000396000f3fe608060405234801561001057600080fd5b506004361061007d5760003560e01c806371e5ee5f1161005b57806371e5ee5f146100dc578063975057e71461010c578063c47f00271461012a578063d5dcf127146101465761007d565b806317d7de7c14610082578063262a9dff146100a057806327e9b1a0146100be575b600080fd5b61008a610162565b6040516100979190610457565b60405180910390f35b6100a86101f4565b6040516100b59190610479565b60405180910390f35b6100c66101fa565b6040516100d39190610479565b60405180910390f35b6100f660048036038101906100f191906103e6565b610203565b6040516101039190610479565b60405180910390f35b61011461021e565b6040516101219190610457565b60405180910390f35b610144600480360381019061013f91906103a5565b610261565b005b610160600480360381019061015b91906103e6565b61027b565b005b60606000805461017190610552565b80601f016020809104026020016040519081016040528092919081815260200182805461019d90610552565b80156101ea5780601f106101bf576101008083540402835291602001916101ea565b820191906000526020600020905b8154815290600101906020018083116101cd57829003601f168201915b5050505050905090565b60015481565b60006004905090565b6002816004811061021357600080fd5b016000915090505481565b606060006040518060400160405280601981526020017f6920616d206c6f63616c2073746174652076617269616c62650000000000000081525090508091505090565b8060009080519060200190610277929190610285565b5050565b8060018190555050565b82805461029190610552565b90600052602060002090601f0160209004810192826102b357600085556102fa565b82601f106102cc57805160ff19168380011785556102fa565b828001600101855582156102fa579182015b828111156102f95782518255916020019190600101906102de565b5b509050610307919061030b565b5090565b5b8082111561032457600081600090555060010161030c565b5090565b600061033b610336846104b9565b610494565b90508281526020810184848401111561035357600080fd5b61035e848285610510565b509392505050565b600082601f83011261037757600080fd5b8135610387848260208601610328565b91505092915050565b60008135905061039f81610624565b92915050565b6000602082840312156103b757600080fd5b600082013567ffffffffffffffff8111156103d157600080fd5b6103dd84828501610366565b91505092915050565b6000602082840312156103f857600080fd5b600061040684828501610390565b91505092915050565b600061041a826104ea565b61042481856104f5565b935061043481856020860161051f565b61043d81610613565b840191505092915050565b61045181610506565b82525050565b60006020820190508181036000830152610471818461040f565b905092915050565b600060208201905061048e6000830184610448565b92915050565b600061049e6104af565b90506104aa8282610584565b919050565b6000604051905090565b600067ffffffffffffffff8211156104d4576104d36105e4565b5b6104dd82610613565b9050602081019050919050565b600081519050919050565b600082825260208201905092915050565b6000819050919050565b82818337600083830152505050565b60005b8381101561053d578082015181840152602081019050610522565b8381111561054c576000848401525b50505050565b6000600282049050600182168061056a57607f821691505b6020821081141561057e5761057d6105b5565b5b50919050565b61058d82610613565b810181811067ffffffffffffffff821117156105ac576105ab6105e4565b5b80604052505050565b7f4e487b7100000000000000000000000000000000000000000000000000000000600052602260045260246000fd5b7f4e487b7100000000000000000000000000000000000000000000000000000000600052604160045260246000fd5b6000601f19601f8301169050919050565b61062d81610506565b811461063857600080fd5b5056fea264697066735822122011afda0bc6ce98a587f80f136692422c409b4c77a37483fb118b6ef395c76dd864736f6c63430008040033",
  "linkReferences": {},
  "deployedLinkReferences": {}
}